S01700004763634170706C69636174696F6E312E737265635B
S11300000C9434000C943E000C943E000C943E007E
S11300100C943E000C943E000C943E000C943E0064
S11300200C943E000C943E000C943E000C943E0054
S11300300C943E000C943E000C943E000C943E0044
S11300400C943E000C943E000C943E000C943E0034
S11300500C943E000C943E000C943E000C943E0024
S11300600C943E000C943E0011241FBECFEFD8E048
S1130070DEBFCDBF0E9476000C949E000C9400005D
S1130080FC01408121E030E002C0220F331F6A9559
S1130090E2F7242B20830895FC01808121E030E0E5
S11300A002C0220F331F6A95E2F7922F909589239D
S11300B080838181282B21830895FC01908121E094
S11300C030E002C0220F331F6A95E2F720952923FE
S11300D020830895FC01408121E030E002C0220F1A
S11300E0331F6A95E2F724272083089565E084E2AC
S11300F090E00E94400065E085E290E00E945D008F
S113010060E084E290E00E94400060E084E290E0DD
S11301100E944C002FEF89E698E1215080409040E6
S1130120E1F700C0000065E085E290E00E946A000B
S113013060E085E290E00E946A00ECCFF894FFCF83
S9030000FC
