S00B00006C63642E73726563E6
S11300000C9434000C9451000C9451000C94510045
S11300100C9451000C9451000C9451000C94510018
S11300200C9451000C9408010C9451000C94510050
S11300300C9451000C9451000C9451000C945100F8
S11300400C9451000C9451000C9451000C945100E8
S11300500C9451000C9451000C9451000C945100D8
S11300600C9451000C94510011241FBECFEFD8E022
S1130070DEBFCDBF11E0A0E0B1E0E6E9F3E002C0ED
S113008005900D92A030B107D9F721E0A0E0B1E0CE
S113009001C01D92A430B207E1F70E94F6000C944F
S11300A0C9010C940000299A85E08A95F1F70000B3
S11300B029980895CF93C82F662311F0289A01C078
S11300C02898549A559A569A579A5F985E985D98CC
S11300D05C98CC230CF45F9AC6FD5E9AC5FD5D9ACC
S11300E0C4FD5C9A0E9453005F985E985D985C988A
S11300F0C3FD5F9AC2FD5E9AC1FD5D9AC0FD5C9A24
S11301000E9453005C9A5D9A5E9A5F9A87EB9BE02B
S11301100197F1F700C00000CF91089560E00E94BC
S11301205A000895611104C080580E948E000895F9
S113013080540E948E00089581E00E948E000895EC
S113014061E00E945A000895CF93DF93EC01219659
S1130150FC018081882329F00E94A00089918111EB
S1130160FBCFDF91CF910895CF93C82F209A559A52
S1130170219A549A559A569A579A8FEF99EF019764
S1130180F1F700C000005D9A5C9A0E9453008FE171
S11301909EE40197F1F700C000000E9453008FEF26
S11301A090E00197F1F700C000000E9453008FEF28
S11301B090E00197F1F700C000005C980E945300A2
S11301C08FEF90E00197F1F700C0000088E20E94F1
S11301D08E0088E00E948E000E949C0086E00E94AF
S11301E08E008C2F0E948E00CF9108958CE00E9487
S11301F0B400E1EBF0E08081897F808380818160BD
S11302008083E0E7F0E08081816080837894FFCF91
S11302101F920F920FB60F9211242F933F934F9377
S11302205F936F937F938F939F93AF93BF93EF935A
S1130230FF93CF93DF93CDB7DEB72697DEBFCDBF55
S113024080E290E29A8389839C838B839E838D834F
S1130250809103018F5F883118F4809303014BC0B0
S113026010920301809102018F5F8A3018F4809309
S1130270020120C010920201809101018F5F8C3332
S113028018F48093010102C01092010180910101D0
S1130290889F802D11248093000160E08BE00E94F0
S11302A09200809100014AE0BE016D5F7F4F90E0B3
S11302B00E94940160E087E00E9492008091020114
S11302C0805D0E94A000809101014AE0BE016F5F41
S11302D07F4F90E00E94940160E084E00E949200CD
S11302E0809101018A3018F480E30E94A000CE01BD
S11302F001960E94A40026960FB6F894DEBF0FBEA6
S1130300CDBFDF91CF91FF91EF91BF91AF919F91BD
S11303108F917F916F915F914F913F912F910F90AA
S11303200FBE0F901F901895BB274A3031F49923C4
S113033022F4BDE2909581959F4F0C94A001BB27B8
S1130340FB015527AA27880F991FAA1FA41710F08D
S1130350A41B83955051B9F7A05DAA3308F0A95D99
S1130360A193009779F7B111B1931192CB010C9439
S1130370B901DC01FC01672F71917723E1F7329712
S113038004C07C916D9370836291AE17BF07C8F36C
S10903900895F894FFCF6C
S9030000FC
