:100000000C9434000C9451000C9451000C94510049
:100010000C9451000C9451000C9451000C9451001C
:100020000C9451000C9422010C9451000C9451003A
:100030000C9451000C9451000C9451000C945100FC
:100040000C9451000C9451000C9451000C945100EC
:100050000C9451000C9451000C9451000C945100DC
:100060000C9451000C94510011241FBECFEFD8E026
:10007000DEBFCDBF11E0A0E0B1E0E4EAF3E002C0F2
:1000800005900D92A830B107D9F721E0A8E0B1E0C2
:1000900001C01D92AB30B207E1F70E94F6000C944C
:1000A000D0010C940000299A85E08A95F1F70000B0
:1000B00029980895CF93C82F662311F0289A01C07C
:1000C0002898549A559A569A579A5F985E985D98D0
:1000D0005C98CC230CF45F9AC6FD5E9AC5FD5D9AD0
:1000E000C4FD5C9A0E9453005F985E985D985C988E
:1000F000C3FD5F9AC2FD5E9AC1FD5D9AC0FD5C9A28
:100100000E9453005C9A5D9A5E9A5F9A8FE79CE02A
:100110000197F1F700C00000CF91089560E00E94C0
:100120005A000895611104C080580E948E000895FD
:1001300080540E948E00089581E00E948E000895F0
:1001400061E00E945A000895CF93DF93EC0121965D
:10015000FC018081882329F00E94A00089918111EF
:10016000FBCFDF91CF910895CF93C82F209A559A56
:10017000219A549A559A569A579A8FEF99EF019768
:10018000F1F700C000005D9A5C9A0E9453008FE175
:100190009EE40197F1F700C000000E9453008FEF2A
:1001A00090E00197F1F700C000000E9453008FEF2C
:1001B00090E00197F1F700C000005C980E945300A6
:1001C0008FEF90E00197F1F700C0000088E20E94F5
:1001D0008E0088E00E948E000E949C0086E00E94B3
:1001E0008E008C2F0E948E00CF9108958CE00E948B
:1001F000B40060E081E00E94920080E091E00E9403
:10020000A40060E08BE00E94920081E60E94A000C2
:1002100061E081E00E94920082E60E94A00061E01D
:100220008BE00E94920083E60E94A000E1EBF0E0E8
:10023000808187608083E0E7F0E080818160808357
:100240007894FFCF1F920F920FB60F9211242F9325
:100250003F934F935F936F937F938F939F93AF934E
:10026000BF93EF93FF93CF93DF9300D0CDB7DEB76B
:1002700080E290E29A83898380910A018F5F8630C1
:1002800018F480930A0102C010920A0180910901BA
:100290008F5F8A3018F48093090107C0109209011A
:1002A000809108018F5F80930801809108018C3351
:1002B00010F010920801809109014AE0BE016F5FC1
:1002C0007F4F90E00E949B0160E087E00E949200D7
:1002D000CE0101960E94A400809108014AE0BE016F
:1002E0006F5F7F4F90E00E949B01809108018A30F0
:1002F00028F460E085E00E94920004C060E084E0A1
:100300000E949200CE0101960E94A4000F900F90CF
:10031000DF91CF91FF91EF91BF91AF919F918F911D
:100320007F916F915F914F913F912F910F900FBEF1
:100330000F901F901895BB274A3031F4992322F46F
:10034000BDE2909581959F4F0C94A701BB27FB01BF
:100350005527AA27880F991FAA1FA41710F0A41BBE
:1003600083955051B9F7A05DAA3308F0A95DA19318
:10037000009779F7B111B1931192CB010C94C001A0
:10038000DC01FC01672F71917723E1F7329704C0FC
:100390007C916D9370836291AE17BF07C8F3089587
:0403A000F894FFCFFF
:0803A40030303A30302E3000F9
:00000001FF
