:100000000C9434000C943E000C943E000C943E0082
:100010000C943E000C943E000C943E000C943E0068
:100020000C943E000C943E000C943E000C943E0058
:100030000C943E000C943E000C943E000C943E0048
:100040000C943E000C943E000C943E000C943E0038
:100050000C943E000C943E000C943E000C943E0028
:100060000C943E000C943E0011241FBECFEFD8E04C
:10007000DEBFCDBF0E9440000C9478000C940000BD
:1000800084B1806284B985B18F7D85B92FEF31EF5E
:100090008BE2215030408040E1F700C0000095B174
:1000A00080E2982795B99FEF25EA3EE091502040E5
:1000B0003040E1F700C0000095B1982795B99FEF57
:1000C00025EA3EE0915020403040E1F700C00000BA
:1000D00095B1982795B99FEF21EF3BE291502040D1
:1000E0003040E1F700C0000095B1892785B9CECF37
:0400F000F894FFCFB2
:00000001FF
