S00C00006D61696E2E7372656373
S11300000C9434000C943E000C943E000C943E007E
S11300100C943E000C943E000C943E000C943E0064
S11300200C943E000C943E000C943E000C943E0054
S11300300C943E000C943E000C943E000C943E0044
S11300400C943E000C943E000C943E000C943E0034
S11300500C943E000C943E000C943E000C943E0024
S11300600C943E000C943E0011241FBECFEFD8E048
S1130070DEBFCDBF0E9440000C9452000C940000DF
S1130080259A2D98389A4098509820E291E0489902
S1130090FECF85B1822785B988B1892788B9489967
S10B00A0FECFF5CFF894FFCF69
S9030000FC
